:020000040001F9
:10B00000D03F0020D5B00100EFB00100F1B0010049
:10B010000000000000000000000000000000000030
:10B02000000000000000000000000000F3B001007C
:10B030000000000000000000F5B00100F7B00100C2
:10B040007DB40100F9B0010065B6010075B50100DD
:10B0500089B501000000000065B20100F9B00100EF
:10B06000F9B00100F9B00100F9B00100F9B0010038
:10B07000F9B00100F9B00100F9B00100F9B0010028
:10B08000F9B00100D1B40100F9B00100F9B001003C
:10B090009DB50100F9B00100A5B50100F9B00100AE
:10B0A000F9B00100F9B0010000000000000000004C
:10B0B0000000000000000000000000000000000090
:10B0C0000348854600F07AF80048004731DE010069
:10B0D000D03F00200321094802680A430260084863
:10B0E00002680A4302600748804707480047FEE7B6
:10B0F000FEE7FEE7FEE7FEE7FEE70000240500406E
:10B1000054050040C5B50100C1B0010030B50B4683
:10B11000014600202022012409E00D46D5409D4231
:10B1200005D31D469540491B2546954040191546B7
:10B13000521E002DF1DC30BD70B5002425460028DC
:10B1400001DA01244042002901DA01254942FFF7D2
:10B15000DDFFAC4200D04042002C00D0494270BD1F
:10B1600003460B439B0703D009E008C9121F08C020
:10B17000042AFAD203E00B780370401C491C521ECB
:10B18000F9D27047D2B201E00270401C491EFBD2D6
:10B1900070470022F6E710B513460A4604461946E2
:10B1A000FFF7F0FF204610BD0321001D401E03786D
:10B1B00012021A43491EF9D510467047064C012564
:10B1C000064E05E0E36807CC2B430C3C984710344F
:10B1D000B442F7D3FFF778FF2C0202004C020200C2
:10B1E00070B51F49054608460C3000F0F7F80028F6
:10B1F00031D00D2003F042F9194C64222078A17857
:10B2000030385043091860780A2250432122120135
:10B21000801A0818002D00D0401C6421FFF78CFF15
:10B220000F4E303014363070207008460A21FFF778
:10B2300083FF3030707030316070B170A170002DBC
:10B2400008D00749032208460C3000F015FA0E20FA
:10B2500003F00CF970BD102003F094FA70BD0000EB
:10B2600018200020F0B50024FF268BB00136012500
:10B2700027460694304603F0CDFA002807D05448FC
:10B280004068284203D0304603F0BCFA2C43361DF8
:10B290006D007F1CB6B2042FECD3FF257D35284608
:10B2A00003F0B8FA002809D0284603F0ABFA680783
:10B2B000044306AA0121002003F090FA454D20071F
:10B2C00014D00127002627420CD04348B2001118A1
:10B2D00008690969C004C00E8903AA58890F002AA9
:10B2E00000D090477F00761C042EECD3002C6DDA42
:10B2F00000200890401E63E0281940300778B90606
:10B30000890E009100214156491C49D009A9009895
:10B3100002F0CEFF002843D0B8090190009801F058
:10B32000F9FA80002F580198002F02D0032802D08C
:10B330000DE0032834D1009808ABC20841079446B9
:10B34000985C490F01228A40104362469854009845
:10B3500005210907800040180721090240180068EC
:10B3600006A98003800F0290009802F0A1FF002838
:10B37000029802D0022802D012E0032810D10198CE
:10B38000032808D1029802281ED00221009803F059
:10B39000E7F9761CF6B2002F02D001990098B84761
:10B3A000641C042CA8D3002E10D06A460121002072
:10B3B00003F014FA06990098884207D0069008987E
:10B3C00000263446099097E70321DFE70BB0F0BD74
:10B3D000006300405C290020006500407CB50C46FD
:10B3E0000546002211A1124801F0F4FE00280ED1FA
:10B3F000132229460F4801F015FF002807D101ABA1
:10B40000032269460B4801F0E9FF002801D0002023
:10B410007CBD084801F0CEFE002069460A5C22543B
:10B42000401C0328FAD301207CBD0000000000006E
:10B430001C2F00204C3100208307FF22DB0E9A4096
:10B440008907090E994000280BDA0007000F083819
:10B45000830808489B001818C36993430B43C361D2
:10B460007047830804489B001B18186890430843E2
:10B470001860704700ED00E000E400E0F8B5FF2040
:10B48000013002F020FF002401250E4E0E4F00284F
:10B4900007D00E4804600120B0607D70002001F0EC
:10B4A0007DFAFF20053002F00EFF002808D0074883
:10B4B000001D04600220B060BD70012001F06EFA32
:10B4C000F8BD0000000300404829002000010040B2
:10B4D00010B506490020086048608860C8600349CC
:10B4E00040390860486004F0E3FB10BD40110140A2
:10B4F00010B50121054801F037FE0324002001F0BA
:10B5000027FD641E01D00028F8D110BD4020002086
:10B5100008B500220CA10D4801F05CFE002811D1F5
:10B5200033220BA10D4801F07DFE00280AD16B46A5
:10B5300012220BA1094802F045F8002802D1074861
:10B5400001F038FE08BD000000000000C42A002001
:10B55000546573742E54585400000000F42C0020DD
:10B5600053442063617264206578616D706C652E50
:10B570000D0A000010B50249024802F02DFB10BD73
:10B58000C02900200030004010B50249024802F0F6
:10B5900023FB10BDE02900200040004010B504F05E
:10B5A000F9FA10BD10B506484068002805D080475C
:10B5B000002801D000F0DAF910BD02F0CDFA10BD7C
:10B5C000E020002010B502F02BFB002805D01F4919
:10B5D0001D484860C8131E4988611E48018CC9B2C5
:10B5E00001290BD1828C120708D1028D1206120F8D
:10B5F000042A03D1828D1206120F0AD0012921D10B
:10B60000818C09071ED1018D0906090F0A2904D072
:10B6100007E0114A01219160F5E7828D1206120FB1
:10B6200005D00D290ED1808D0006000F0AD10B48E0
:10B630000168012904D00A49016001680129FCD18F
:10B64000C021416110BD0000DFFF07C000050040C0
:10B65000006C0040C00F00F00006004000EC064007
:10B660007593000010B50249024804F0E4FB10BDD8
:10B67000A429002000200040F8B515460E460446D7
:10B6800000220EA10E4801F0A5FD00280ED11322C4
:10B6900021460C4801F0C6FD002807D16B462A461A
:10B6A0003146084801F08EFF002801D00020F8BD87
:10B6B000044801F07FFD0120F8BD000000000000FB
:10B6C00074330020A435002030B47446641E2578FD
:10B6D000641CAB4200D21D46635D5B00E31830BCC6
:10B6E000184702E008C8121F08C1002AFAD17047A3
:10B6F0007047002001E001C1121F002AFBD17047F2
:10B70000202804DA012181400348014201D00120B0
:10B710007047002070470000FC06FFBCF7B584B0FE
:10B72000064600251788158020300290407B14467D
:10B73000002806D03A462146059800F009FD05008C
:10B7400009D1B078002823D0059886462088001DAE
:10B75000B84202D90C2007B0F0BD684679DF002856
:10B76000F9D1218803207246505420881921401CA9
:10B7700080B22080115420887146401C80B2208005
:10B7800041186846008804F0EAFB218840182080B0
:10B79000F078002817D0218803230A46F356C91CE5
:10B7A0000598B942D6D80221815421880122491C2A
:10B7B00089B2218042542188491C89B22180435496
:10B7C0002088401C20807068002817D02188002322
:10B7D000C3560A46C91C0598B942BBD802218154F8
:10B7E00021880A22491C89B2218042542188491C9F
:10B7F00089B2218043542088401C20803089002851
:10B800000AD0009430460197062202210830059B99
:10B8100004F0F2FB05009ED1308A00280AD0009483
:10B8200030460197072203211030059B04F0E4FB0A
:10B83000050090D1308B00280AD000943046019743
:10B84000152214211830059B04F0D6FB050082D187
:10B85000306A002806D03B462246059901F012F9CD
:10B860000500D8D1706A002806D03B4622460599CB
:10B8700002F072FC0500CED10298007B002807D0B0
:10B880003B4622463046059903F0D2FD0500C2D161
:10B890003078002807D03B4622463046059902F012
:10B8A000B8FC0500B7D1284655E70000174A00212B
:10B8B000535C002B01D0012203E0491C0629F7D379
:10B8C00000221349012806D002280BD0032810D0EB
:10B8D000042818D112E04878002803D0002A01D0AB
:10B8E000012070478878002803D0002A01D0022068
:10B8F0007047C878002801D00320704708790028D5
:10B9000001D00420704700207047000081200020F3
:10B910006027002010B501220221002000F000FF66
:10B92000002801D0072812D107220221012000F0AF
:10B93000F7FE002801D0072809D100210A22084675
:10B9400000F0EEFE002801D0072800D1002010BD35
:10B95000BFF34F8F04490348C860BFF34F8F00BF48
:10B96000FDE700000400FA0500ED00E00EB500213F
:10B97000029000916A4601910148FFF7E9FF0EBD70
:10B980000140000010B5154B9C78002C04D09C7829
:10B99000032C03D0112010BD082010BD002A11D0A7
:10B9A00004249C700D4B203B9C7A240700D4490250
:10B9B0001961D8609A820020DA829883012A03D91B
:10B9C000522002E0072010BD5120012203F044F96B
:10B9D000002801D0FFF7CAFF002010BD882A0020F0
:10B9E00070B51446194A9378002B04D09378032B32
:10B9F00003D0112070BD082070BD002C1ED005237F
:10BA00009370124B203B9A7A150700D449021961B2
:10BA1000D8609C820020DC829883012C10D05007D3
:10BA2000400F01280FD001222146D72003F014F93E
:10BA3000002801D0FFF79AFF002070BD072070BDDD
:10BA400001225820F2E701225920EFE7882A00203E
:10BA500005488178032904D08078002801D001208E
:10BA60007047002070470000882A00200448807832
:10BA7000032802D302481C3870470020704700009A
:10BA8000882A0020F0B52E4D0446A87887B00F46CE
:10BA9000002802D0082007B0F0BD002F4ED0E0787B
:10BAA000FF284BD06178FF2948D02178FF2945D065
:10BAB000A178FF2942D0224E002120363076009115
:10BAC0000B4601220191114602F0FEFD307E02F08C
:10BAD00071FE1C4B02AE0FCB0FC6A17868460172F7
:10BAE00021784172617881721648174A02A9083894
:10BAF00002F0D0FC002801D0FFF738FF10482038B2
:10BB000001210760A970817AF722C908C900114094
:10BB100081720020E870FF2028720A20084B0090F4
:10BB200018330848194601221039083802F03CFD44
:10BB3000002801D0FFF71AFF0020ACE70720AAE792
:10BB4000882A00200802020051F601007CB50E4C44
:10BB5000A078002804D0A078032803D011207CBD51
:10BB600008207CBD094802F02BFD07480025203045
:10BB7000007E00952B462A462946019502F0A4FD39
:10BB8000E570A57000207CBD882A0020000202001C
:10BB9000094B5B68002B07D0002A07D0002805D08E
:10BBA0000068037C002B03D00820704707207047F3
:10BBB0004174426100207047BC200020FFB5074659
:10BBC0009007002581B01E461446002825D1002C80
:10BBD00023D002F071FF3046114EF0603046103035
:10BBE000057045700299817044607560357001245C
:10BBF0000C4875702405046003211420FFF71CFC19
:10BC000009480460094CA76003211120FFF714FCC8
:10BC10006068B060002005B0F0BD0720FBE70000C1
:10BC2000AC20002080E200E000E100E000150140CF
:10BC3000FEB51F4B5B68002B30D000282ED00529A5
:10BC400001D20720FEBD4369002B27D0437C012B86
:10BC500026D00027029104460025694616460D703D
:10BC6000684600F03DF801A804F0B0F9002819D0AA
:10BC7000012101700F4944604968816002990761A0
:10BC80004661C16068460A49007948706846007894
:10BC900000F044F803F0C0FF2846FEBD0820FEBDBA
:10BCA0000F46D7E768460425007800F037F8F3E739
:10BCB000BC2000200015014010B508494968002942
:10BCC0000AD0002808D04169002905D0002101745C
:10BCD000022103F0C9FF10BD082010BDBC200020C8
:10BCE00030B5EFF3108172B6094A54680123002C75
:10BCF00004D00370002900D162B630BD5360054BFB
:10BD00001D68054C254015601C6000220270F1E79B
:10BD1000D020002080E100E0FC06FFBC08494A6812
:10BD2000002A0CD000280AD1EFF3108072B60A68FE
:10BD3000044B1A6000224A60002800D162B67047A6
:10BD4000D020002000E100E0F0B50C4693B01F21A8
:10BD50006A461180072600279180002809D0C17803
:10BD600049070DD502A9FFF7D9FC002809D102AD7A
:10BD700001E000251780002C0ED0E078002802D0CA
:10BD8000304613B0F0BD01AA0AA92046FFF7C6FC51
:10BD90000028F6D10AAA02E0684600228780684699
:10BDA0008088C3B268460088C1B2284672DFE8E7DF
:10BDB000FFB581B01E460A9F1346040047D0002BF2
:10BDC00045D0504D012028700020E87020221946EF
:10BDD0004D48FFF7C5F900206F61C0432E612881EF
:10BDE000284607211830FFF7D4F947483C21203076
:10BDF000FFF7CFF94448217820300170A178817095
:10BE0000E178C170617841703F4A65692369556383
:10BE1000114613632031E368A268CB608A603A4917
:10BE2000E369A269CB638A63616A00291AD001467B
:10BE30003C310246483241628A60636A1B880B804B
:10BE4000616A436A898899800021436A07E00E206D
:10BE500005B0F0BD656AAD686D5C5554491C9D88A0
:10BE60008D42F7D8A16A00291CD0274A9432114686
:10BE70000C398A608162A36A9B888B80A16A836A7D
:10BE8000098819800021836A04E0A56AAD686D5CA9
:10BE90005554491C9D888D42F7D82C210A5D1A49BA
:10BEA00040310A73216A002909D016490A3101621A
:10BEB000226A52884A80216A026A09881180616870
:10BEC000002900D04160104A0E490020B3322031D1
:10BED000C3001B1A85009B180C68401C635108287E
:10BEE000F6DB094A0020EB32030185009B188C68C1
:10BEF000401C63510828F7DB034802992030FFF704
:10BF000023FFA5E7682000206027002010B50188E6
:10BF1000134C102915D0112919D01B2910D1007AE2
:10BF200000280DD1E0780521401CFFF7EFF8084606
:10BF300000F018F8002803D06169002900D0884774
:10BF400010BD817D0129FBD18088208110BD002199
:10BF50006171808821898842F8D10120E8E70000DA
:10BF600068200020F1B53F4C88B0207800280AD026
:10BF70000898E07006A801F067FD069801250028E2
:10BF800004D065706AE0082009B0F0BD354800278C
:10BF900007211830FFF7FDF8334E7078002802D0E3
:10BFA000E078012807D0B07800280CD0E07801288C
:10BFB00001D0022807D12169002903D0257108206A
:10BFC000884700E027710898FFF770FCE07021694E
:10BFD000002909D0032801D0042805D13078002891
:10BFE00002D06079002811D0A77118216846FFF7A8
:10BFF000D0F8684607700772E1781A480B001830CD
:10C00000FFF762FB052E080F191D2000A571072000
:10C010008847EAE7A5700190684605704782078265
:10C0200013E00221A170019068460570B189418238
:10C030003189018209E0684603F042FA02E068466D
:10C0400003F06AFAE078002803D0684673DF00281E
:10C050009AD12169002901D0A0788847002093E770
:10C06000A770F6E7682000206027002070B505461D
:10C0700001461C220E48FFF773F80E4C002626706E
:10C080002968002906D00822201DFFF769F8201D25
:10C090007ADF02E00748001D7BDF002807D1401E41
:10C0A00060806670044A00210448FFF771FD70BD8E
:10C0B0002C2900209820002069FF0100880102003F
:10C0C000F8B5214C0146028800261E48E589102A51
:10C0D00013D01E4F112A1FD0122A2BD0502A1AD14A
:10C0E000881DC988A94216D14189022913D10C3073
:10C0F00000F0FEF800280CD112E08A880446428045
:10C10000104808220C301831FFF72AF86670002D0D
:10C1100001D100F0FFFCF8BD0021C9434180467009
:10C120003868FFF7C9FD0028F5D0A1690029F2D0D1
:10C130008847F8BD034808220C300831FFF710F893
:10C14000E7E70000982000202C2900208801020049
:10C150007CB5054608880C460930904201D90C2070
:10C160007CBD684671DF0028FAD121880820685418
:10C1700020881B21401C80B220802954208800A9DF
:10C18000401C80B22080401906220131FEF7E8FFF2
:10C1900020886946801D80B220800978002900D05F
:10C1A000012129542088401C208000207CBD0000F3
:10C1B00010B50446FFF784FF2146064800F040F81A
:10C1C000204602F07DFB2046FFF7A0FE204600F04F
:10C1D0000FFA10BD0C22002030B5184B0D4604009C
:10C1E0000FCB85B003936B4607C324D0002D22D01C
:10C1F0000020C043A0822868A0610020A0752146CD
:10C20000684663DF002814D12178684681740121D3
:10C210000182A21C04A90120A0DF002809D129461F
:10C22000204602F07EFC002803D12946204603F078
:10C23000B6FD05B030BD0E20FBE700008C0102000A
:10C2400010B500281BD0002919D00A88102A17D051
:10C25000112A17D0502A12D104468A1DC888238A71
:10C260001231984202D15389022B0FD0A3889842F1
:10C2700005D1A369002B02D052892046984710BDF2
:10C28000898801E00021C943818210BD084600F081
:10C290002FF8002800D00120A07510BD07B584B08C
:10C2A00000280DD0828A114B9A420BD0827D002A41
:10C2B00008D06A46128B142A06D9072007B000BDA1
:10C2C0000E20FBE70820F9E700220092019202927B
:10C2D000039282896B461A80039106A9029101217B
:10C2E0009970808A6946A6DFE8E70000FFFF00003A
:10C2F0004178027808021043C007C00F7047000061
:10C300000A78087A002A05D0012A03D0022A01D02F
:10C31000032A08D14A780C21484303494968401848
:10C320000272002181727047FC20002080697047F2
:10C33000F7B584B004980E4601698469CB1FFF3BB2
:10C34000FA3B02D0062007B0F0BD154D6968002900
:10C3500001D01120F7E7A660A2616860114914308E
:10C36000FFF790FB070009D1002E15D1FFF770FBF6
:10C370000028FBD12878002810D00D270020686005
:10C38000002E09D0084A6B4607CA07C3A06902906D
:10C39000A2686946049890473846D4E70027FBE72F
:10C3A000D8200020EDEC0100D0010200002903D0CC
:10C3B000012907D006207047002A01D00020107004
:10C3C00000207047002A02D0001D1060F8E7072007
:10C3D00070470000FEB51E4F0646846978680D461A
:10C3E000B04203D1FFF734FB002801D01120FEBD7D
:10C3F00007CD23460C3307C30C3DA888296882B2B9
:10C40000A868FFF7BFFA05000AD1A06800281AD172
:10C41000FFF71EFB0028FBD13878002815D00D252A
:10C42000A06800280FD0002D0DD00A49086B896B39
:10C430000090204602910C300190A0690290A26801
:10C440006946304690472846FEBD0025E8E70000D3
:10C45000D8200020B8010200FEB5134F04468569BC
:10C460007868A04203D1FFF7F3FA002801D0112029
:10C47000FEBDFFF76BFB060000D17860A8680028BE
:10C480000FD00A496B4607C907C3002E01D001200F
:10C4900000E0002069464870A8690290AA6820461A
:10C4A00090473046FEBD0000D8200020DC0102008D
:10C4B000FEB51E4F0646846978680D46B04203D12A
:10C4C000FFF7C6FA002801D01120FEBD07CD234694
:10C4D0000C3307C30C3DA888296882B2A868FFF70F
:10C4E0007FFA05000AD1A06800281AD1FFF7B0FA38
:10C4F0000028FBD13878002815D00D25A068002829
:10C500000FD0002D0DD00A49C86B496C0090204611
:10C5100002910C300190A0690290A26869463046F1
:10C5200090472846FEBD0025E8E70000D8200020FF
:10C53000B80102000149085C704700005801020080
:10C5400005490B5C05494A6801209840034693431E
:10C550008B601040C8607047540102000005005015
:10C5600010B50349085C012102F02CF910BD000050
:10C570005401020010B50349085C002102F022F9C1
:10C5800010BD0000540102000549095C05484068DF
:10C59000C840C007C00F00D00120012148407047AB
:10C5A000540102000005005010B500242046FFF79A
:10C5B000D7FF641C042CF9D310BD10B5002420460D
:10C5C000FFF7D8FF641C042CF9D310BD02460020ED
:10C5D00010B5C043054B00215C5C944201D1084674
:10C5E00010BD491C0429F7D310BD000058010200FA
:10C5F00010B51C4C0188606810290DD011290AD192
:10C60000401E606007D1FFF785F9002803D021683C
:10C61000002900D0884710BD00281ED1002101222A
:10C62000084600F07DF8002801D0072811D1072224
:10C630000221012000F074F8002801D0072808D159
:10C6400004220221002000F06BF8002805D0072802
:10C6500003D02168002900D088476068401C6060D2
:10C6600010BD00006020002010B5002000F04AF945
:10C67000002801D0062807D1012000F043F9002846
:10C6800001D0062800D1002010BD0000F3B581B014
:10C690000D460198FFF79AFF0446042813D21D485F
:10C6A0001D4F1E4E002D27D0012D0DD0022D0AD179
:10C6B00060002018C0194578002D04D0F1680029C9
:10C6C00001D028468847FEBD610061187D5CCF1906
:10C6D000797800290BD071680A2251430F4A80688B
:10C6E000921CFFF7A5FA002801D10198B0700B4801
:10C6F000B97810300155DFE78068FFF7DDFA0748A9
:10C70000610061181030C919005D8D78A842D3D03E
:10C71000FEBD00005C010200342700204C200020F8
:10C7200070B50023042811D2440004190D4D012ACC
:10C7300002D101290DD0002246008019094E80192E
:10C7400000290CD0012906D0022906D0072318465B
:10C7500070BD0E30C2B22A55F9E74270F7E7827019
:10C76000F5E700003427002010B5054A0146127A8B
:10C770000020D20702D0084600F004F810BD0000E7
:10C780004C200020F8B55D4C054660780026002856
:10C7900003D000206070FFF707FF0120584F2B00E7
:10C7A000FEF792FF18970D0D2E3D4A5F64686F6883
:10C7B0006FA97777777777979A9DA0A9A995002099
:10C7C000FFF7E2FE00280AD00020FFF7C9FE022D85
:10C7D00002D1E120C0000BE07D20400108E00020F4
:10C7E000FFF7C8FE022D01D1C82001E0FF209130E3
:10C7F00025706421FEF78AFC6168414300222BE02A
:10C800000020FFF7C1FE002805D00020FFF7A8FE9A
:10C8100019204001ECE70020FFF7ACFEE4E7002020
:10C82000FFF7B2FE002803D00020FFF799FED3E700
:10C830000020FFF79FFED9E70020FFF7A5FE0028A4
:10C8400003D00020FFF78CFE02E00020FFF792FEED
:10C8500025706068410000223868FFF7E9F9064654
:10C8600035E00020FFF76CFE257007E000203FE078
:10C8700025702CE060700120FFF762FE00226168E5
:10C88000EAE760700120FFF75BFE606881004118F5
:10C89000E1E77868FFF710FA06461120401B01D047
:10C8A000002E03D00220FFF75BFE10E001280BD919
:10C8B000C82148436421FEF729FC616800224143F6
:10C8C0007868FFF7B5F906460220FFF753FE3046B9
:10C8D000F8BDFFF769FECBE7FFF766FEC6E7FFF797
:10C8E00063FE04E0FFF760FE0020FFF743FE012037
:10C8F000FFF740FEBCE7FFF760FEB9E74C200020E1
:10C900005C01020010B5FFF715FE032101F017FFCF
:10C91000002010BD02490918202008567047000069
:10C920005C29002010B504460020E070401EE06243
:10C93000204601F054FC002801D0042010BD13480B
:10C94000201801F0BAF91249884201D0032010BD25
:10C9500021462031087CE92804D0EB2813D1887CBB
:10C96000902810D12046663001F09CF90949000258
:10C97000884206D02046823001F094F90649884268
:10C9800001D1002010BD022010BD00002E020000C9
:10C9900055AA0000004641544641543370B5084C36
:10C9A000050009D010342168002907D008682060EC
:10C9B000496828468847F6E70834F4E770BD000068
:10C9C000482900204269891E921E8A4201D800200F
:10C9D00070474289806A4A4310187047F8B5234867
:10C9E000416800293ED00E6821494C6887688078EC
:10C9F000E11B0D022D0AED1C002814D101201D4A57
:10CA0000000450601B4A403A50601B4940000860D7
:10CA10001A4908601A49012008602F2001F05CFCC7
:10CA2000124901208870B54200D23546E81900024B
:10CA30000F4B000A403318600D4A5168001B091B58
:10CA40000902090A0002000AC91C814209D950687A
:10CA500018602F2001F040FC012007494004803974
:10CA60000860F8BD02F028F8F8BD0000AC200020F6
:10CA7000001501404013014080E200E000E100E0C9
:10CA800000100140F8B50646108814468446801D03
:10CA90000D46984201D90C20F8BD32880720062A9D
:10CAA000FAD31927FF01184BBA4201D99A42F3D1A0
:10CAB00071880629F0D3B94201D99942ECD19A4242
:10CAC00003D0994201D08A42E6D805216046295414
:10CAD00020881221401C80B2208029542088401CCC
:10CAE00080B220804119308803F039FA218840183B
:10CAF00080B220804119708803F031FA21884018F3
:10CB000020800020F8BD0000FFFF000010B5FEF7F8
:10CB10002DFF10BDF8B5164801F074F8144D00262D
:10CB20000C3D144C002807D0616900291CD001205D
:10CB30006A461070684616E02878002805D06169BA
:10CB4000002911D0684606700DE0687800280DD0E5
:10CB5000A168094800220068FFF76AF8002803D09E
:10CB6000A169002900D088472E70F8BD6168F0E700
:10CB7000A42000202C29002088010200F3B581B0F8
:10CB800001980F00056805D000F06AFF022809D25D
:10CB90000120FEBDEE68002E02D06869B04207D8C1
:10CBA000012605E0411CF4D069698142F1D83E4676
:10CBB00034466869641CA04202D80224022E0BD3BA
:10CBC0002146019800F04CFF002807D00128E0D052
:10CBD000411CDED0B442ECD10020FEBD0026F6435D
:10CBE00032462146284601F0B7FE002808D1002F22
:10CBF0000BD022463946284601F0AEFE002804D06C
:10CC000001280FD001242046FEBDEC606969286927
:10CC1000891E884201D2401E2861287901210843DB
:10CC20002871F0E73446EEE7F3B581B00299203081
:10CC30000D6804460B22202101F0CBFA00200146AA
:10CC4000082222E06A5C491C202A13D92F2A0CD022
:10CC50005C2A0AD02E2A01D0604518D360460B28E2
:10CC600036D02E2A34D10EE0491C6B5C2F2BFBD022
:10CC70005C2BF9D06B18029900280B6028D0207823
:10CC8000E52831D032E008200B229446DAE713463B
:10CC9000813B1E2B02D95F3B1C2B10D86B5C491CBF
:10CCA0001E46403E3F2E02D3403E7D2E10D26646A9
:10CCB000761EB0420CD22254401C235412E00FA323
:10CCC000164600E05B1C1F78002F03D0B742F9D155
:10CCD0000620FEBD1346613B192B02D83246203A8E
:10CCE000D2B22254401CADE705202070202A01D882
:10CCF000042000E00020E0720020FEBD222A2B2C40
:10CD00003A3B3C3D3E3F5B5D7C7F000020BF70476F
:10CD1000F8B504460021056800F0D7F8002828D1AE
:10CD20002846A16901F05BFA020021D1E06901788F
:10CD3000002913D0C17A8906890EA171C17A090729
:10CD400010D4214620310B2306780F78401CF61BA7
:10CD5000491C5B1E04D0002EF6D003E0042207E03D
:10CD6000002E05D00021204600F004F80200D7D0A4
:10CD70001046F8BDF3B50546076904688069203799
:10CD800081B0002803D0012149058F4201D304203E
:10CD9000FEBDF9055CD1401CA8616969002922D05B
:10CDA0006289780A521E104252D1284600F058FE7D
:10CDB0000646012820D9701C35D06069B04241D8A0
:10CDC0000298002813D028466969FFF7D7FE0600AD
:10CDD00010D0012E10D0701C25D0204602F040FE4D
:10CDE000002820D10AE021897809884230D3002028
:10CDF000A861CCE70720FEBD0220FEBD012220462F
:10CE000052020021303001F0E4F900200090314658
:10CE10002046FFF7D7FD0DE00120E070204602F02C
:10CE20001FFE002801D00120FEBD0098401C00908C
:10CE3000E06A401CE062618900988142ECD8E16AB6
:10CE4000081AE062314620466E61FFF7BBFDA8611B
:10CE5000F805C00D001930302F61E8610020FEBDDB
:10CE600070B504460021066800F02FF80FE0304648
:10CE7000A16901F0B4F900280BD1E0690078E52838
:10CE80000AD0002808D001212046FFF773FF0028B0
:10CE9000EDD0042807D007E03046A16901F09FF9E2
:10CEA000050003D00FE0072005460CE020220021FA
:10CEB000E06901F08EF921460B222031E06901F092
:10CEC0007FF90120F070284670BDF8B50546076867
:10CED000012040050E46814238D2F00636D12E613F
:10CEE000AC68002C05D13878032806D37C6A002C66
:10CEF00003D078894002009012E039897009884295
:10CF000024D2786A12E0284600F0AAFD0446401CAC
:10CF10001AD0022C1AD37869A04217D90098361A71
:10CF200086422146EFD23846FFF74CFD6C61A8617E
:10CF300000280BD0710A4018A861F005C00DC01977
:10CF40003030E8610020F8BD0120F8BD0220F8BDB6
:10CF500070B51C4D297888420ED20C2104466A68AF
:10CF60004C431159002907D0A1184B7ADB0705D093
:10CF70004B68002B04D005E0032070BD487A70BDDB
:10CF8000114B4B6001238B721359024618680F49ED
:10CF900006681846B047002802D00FE04068804776
:10CFA00068682018817A0029F8D169686118097ABF
:10CFB000002903D1417A4908490041726868201864
:10CFC000407A70BDFC2000200DCD010001C301009E
:10CFD00038B51E4D2B78984201D3042038BD0C2360
:10CFE00058430446002907D018480129406815D045
:10CFF00002291DD0012038BD0120694608706868EB
:10D000006A460059002101F05BF9002801D011287F
:10D0100017D1684600780028F1D112E000590028A5
:10D0200011D001681446496988470068206008E00B
:10D030000059002807D0016814464969884780884C
:10D040002080002038BD032038BD0000FC200020D7
:10D05000FEB51C4D2C78A0420DD2002B0BD00C2419
:10D060006E6844433059002803D0A019477AFF075F
:10D0700003D00320FEBD0420FEBD02910193009267
:10D080000121817236596F463068416930468847C0
:10D0900000680099884213D9306839468268304662
:10D0A0009047002802D00BE040688047686820184D
:10D0B000817A0029F8D168682018007A0028DBD02E
:10D0C0000120FEBDFC20002005490A78904201D3D2
:10D0D000012070470C22496850434018407A70473D
:10D0E000FC200020FEB51F4C2578A8420DD2002B55
:10D0F0000BD00C25666845437059002803D0A81949
:10D10000477AFF0703D00320FEBD0420FEBD477A07
:10D110007F0701D50220FEBD0291019300920121FB
:10D12000817276596F463068416930468847006899
:10D130000099884213D930683946C2683046904712
:10D14000002802D00BE04068804760682818817A88
:10D150000029F8D160682818007A0028DBD0012067
:10D16000FEBD0000FC200020014A50601170704795
:10D17000FC20002010B50E4900230A784C78A2420A
:10D1800012D0521CD2B20A70022A00D10B700A7857
:10D19000074B920018339A580260886810180002F2
:10D1A000000A8860012010BD0360002010BD00004F
:10D1B000AC20002038B5044600F0BCF9002807D1A7
:10D1C0006946204602F087FF002801D10021216036
:10D1D00038BD000017B581B002980090144668462B
:10D1E00000F09BFC002802DA0B2004B010BD0C49B3
:10D1F0008300C8580022002800D00270019800283F
:10D2000000D00270C850002801D0012C01D00020AD
:10D21000EBE7002201A902A800F09EFAE5E7000072
:10D22000F8200020F7B592B0050009D09606B60E9A
:10D2300032460BA913A800F08FFA040003D0C4E013
:10D24000092015B0F0BD0B9800906846139900F0C6
:10D25000BFFB040004D108A8C07A000600D506244C
:10D26000F006400F4FD0002C0AD0042C03D16846A2
:10D27000FFF7F6FD044608200643002C0BD0A4E07F
:10D28000684680791121084201D007249DE070078B
:10D2900001D5082499E0300745D54F4F0798394606
:10D2A0000E3002F086FB07983946163002F081FBFB
:10D2B00007992020C87207990B9800F0E0FC0746F8
:10D2C000002207990B9802F062FB079800211C309E
:10D2D00002F06FFB01200B99002FC87021D0C86AA3
:10D2E0000C9000223946684601F0ADFB04006CD179
:10D2F0000C990B9800F073FF04467F1E0B98002CCE
:10D30000C7600CD061E0002C5FD168468079C1060F
:10D3100001D5042459E0B10701D5C007B5D13007C4
:10D3200001D5402006430B98C16A296207996962BA
:10D33000079900F0A4FCA86007981C3000F0B2FC2C
:10D34000E8600B982860C088A88000202E7468745C
:10D35000E8610146686128460122283052020F9098
:10D3600000F037FFB00632D5EE68002E2FD06E6188
:10D370000B98A968408947020FE0284600F070FB2F
:10D380000146012800D80224481C03D0F61B002CBB
:10D3900003D004E00124F61B01E0BE42EDD8A961F0
:10D3A000002C12D1F00512D00B98FFF70BFB0028D0
:10D3B0000FD0710A0A18EA610B98012340780F997F
:10D3C000FFF746FE002802D00124002028602046F6
:10D3D00037E70224F9E7000000002148FFB589B0D3
:10D3E000044601910C9800210160154604A92046CD
:10D3F00002F071FE002811D1607C00280ED1207C43
:10D40000C0070AD06169E0680127401A2146283127
:10D410000591854200D9054686E007200DB0F0BD94
:10D420006069C10565D10499460A4989491E0E40C3
:10D430000AD1002823D02046A16900F011FB022860
:10D440001FD3411C50D0A061A1690498FFF7BAFA1C
:10D45000002816D080190090680A039028D00499FB
:10D4600032184889824201D9801B03904878039B77
:10D47000009A0199FFF7ECFD002835D104E0A0687F
:10D48000DDE702206074C9E7207C00060DD5E16964
:10D490000098081A0399884207D241020198012294
:10D4A00008185202059900F08BFE039846022FE0FF
:10D4B000E269009882421AD0207C00060BD50498BD
:10D4C000012340780599FFF70DFE00280CD1207C40
:10D4D0004006400E2074049801234078009A059974
:10D4E000FFF7B6FD002802D06774012096E7009888
:10D4F000E061A08A0121C005C00D49020E1AAE42AA
:10D5000000D92E46011932462831019800F058FE04
:10D510000198801901906069801960610C98006819
:10D5200081190C98AD1B0160002D00D078E7002018
:10D5300074E70000F8B50446694602F0CCFD002807
:10D540000FD1217C4A060CD508060FD5009821463C
:10D55000E269407801232831FFF7C4FD002801D09B
:10D560000120F8BD207C4006400E2074144E216A34
:10D57000009800F034FE0028F3D1656A2021E87A93
:10D580000843E8722946A268206802F000FA28469B
:10D590001C30E16802F00DFA28463146163002F0E0
:10D5A00008FA28460021123002F00BFA00980121F7
:10D5B000C17002F00BFA217CBF2211402174F8BD2A
:10D5C00000002148FFB589B0044600910C98002165
:10D5D0000160154603A9204602F07DFD002806D112
:10D5E000607C002803D1207C800702D407200DB086
:10D5F000F0BD60692246283241190127019281421B
:10D6000000D2C5439EE06069C10575D10399460A01
:10D610004989491E0E4015D1002801D0A16903E0B7
:10D62000A068002805D100212046FFF7A7FA0028AE
:10D630007ED0012831D0411C58D0A061A1680029BA
:10D6400000D1A060207C00060CD50398E2694078E8
:10D6500001230199FFF746FD002847D1207C4006B1
:10D66000400E2074A1690398FFF7ACF9002814D08C
:10D6700080190290680A049027D0321803984189D3
:10D680008A4201D9891B04914078049B029A00992F
:10D69000FFF728FD002829D102E002206074A6E7E8
:10D6A000E1690298081A049988420BD24102009855
:10D6B000012209185202019800F082FD207C4006E8
:10D6C000400E20740498460229E0E16902988142E4
:10D6D00010D0E168606988420CD203980123407839
:10D6E000029A0199FFF7B4FC002803D06774012067
:10D6F0007DE701E00298E061A08AC1050120C90D23
:10D700004002461AAE4200D92E4608193246283049
:10D71000009900F055FD207C80210843207400987A
:10D7200080190090606980196061E168884200E0BA
:10D730000BE000D80846E0600C98006881190C984E
:10D74000AD1B0160002D00D05DE7207C4021084327
:10D75000207400204BE70000F7B588B000270E4684
:10D760000F6000F0DAF9050002D50B200BB0F0BD18
:10D770009049A8000C58002C15D034600A9846082F
:10D7800020787600002804D06078FFF79DFCC10760
:10D790000BD000202070E8B26070FFF7D9FBC10702
:10D7A00009D00320E2E70C20E0E7002E01D040077B
:10D7B00005D40020DAE7002E03D0400701D50A2067
:10D7C000D4E7002529462046FFF7ACF8022821D1EE
:10D7D00002AF28010019FF30EF300179002903D092
:10D7E000083000F05FFA00E00020A9006D1C7850BE
:10D7F000042DEED30026B0003D58002D06D029465A
:10D800002046FFF78FF8022801D203E00320761CA0
:10D81000042EF0D3042810D0022876D220463B30C4
:10D8200000F04BFAC11FFF39FA396ED1204646305D
:10D8300000F043FA010002D006E0012096E72046FE
:10D84000543000F02FFA01464020A161005DA07025
:10D85000012801D0022858D1484301903D20005DA5
:10D860006081002851D0411E08424ED120464130EF
:10D8700000F023FA2081000747D12046433000F012
:10D880001CFA060004D12046503000F00BFA064680
:10D8900020463E3000F011FA070036D001983918C2
:10D8A0002089069000090818009086422DD36189CE
:10D8B000301AFDF72BFC002827D03F490326884269
:10D8C00000D802263D49884200D80126E919E561C1
:10D8D000801C21626061009AAA18A262032E16D0F1
:10D8E000069A002A11D0019A89186162022E1FD06F
:10D8F00041004118C0074908C00F0818FF30FF3029
:10D900000130A169400A814214D20D202EE7204641
:10D910005A3000F0D2F90028F7D120890028F4D13C
:10D9200020465C3000F0BEF9606260698000E5E787
:10D930004000E3E70020C0432061E06080202071C8
:10D94000032E2ED12046603000F0B7F9012828D1EF
:10D95000691C204600F043FC002822D120711848A1
:10D96000201800F0AAF9174988421AD12046303011
:10D9700000F098F91449884213D1852080002018BE
:10D9800000F090F9114988420BD14320C0002018C3
:10D9900000F088F9206187208000201800F082F9CB
:10D9A000E06004492670091F0888401C0880E08058
:10D9B000FFE60000F8200020F5FF0000F50F000052
:10D9C0002E02000055AA000052526141727241615C
:10D9D00073B504460668019801E0401C0190017887
:10D9E0002F29FAD05C29F8D00021A16001982546A2
:10D9F00000782035202805D28020E8722046FFF7E5
:10DA000064FA7CBD01A92046FFF70EF90028F8D181
:10DA10002046FFF77DF9E97A002805D00428F0D1E7
:10DA20004907EED405207CBD4907FCD4A079C00687
:10DA3000F8D5208AC005C00D81193046303100F07C
:10DA40001EF9A060DEE70000002804D00349496EFB
:10DA5000016000207047032070470000002A00206A
:10DA6000F8B504680D4602290BD36069A84208D9AD
:10DA700000262078F643012806D002282CD003285F
:10DA80003AD001263046F8BD68084719206A790A5D
:10DA90004118204600F0A3FB0028F3D1F805C00D83
:10DAA00000192030007C00907F1C206A790A411800
:10DAB000204600F094FB0028E4D1F805C00D0019C1
:10DAC0002030007C009900020843E90701D00609D4
:10DAD000D8E70605360DD5E7206A290A4118204601
:10DAE00000F07DFB0028CDD12806C00D0019303094
:10DAF00000F0E3F80646C5E7206AE9094118204628
:10DB000000F06DFB0028BDD16806C00D0019303053
:10DB100000F0C8F806013609B4E710B50446002045
:10DB20002268C043002A13D0114600E0491C0B783C
:10DB3000212B0ED33A2BF9D11378521C303B0A2BF0
:10DB400006D28A4204D1002B02D1491C184621601A
:10DB500010BD002010BD0000F8B51E4C2078002834
:10DB600036D0E068002600280CD000256078002818
:10DB70002ED1684652DF052806D0002806D0FDF7D2
:10DB8000F5FE0BE00125F1E7012607E0009800F023
:10DB90002FFC2169002901D000988847002D13D15E
:10DBA0006078002814D1608869460880A06861DF29
:10DBB000052804D0002804D0FDF7D8FE04E0012594
:10DBC00002E0E168A0688847002ECFD0002DE5D0A4
:10DBD000F8BD0000E020002070B50C46FF2109319F
:10DBE00000254550214602F0A3F8002809D1A07E67
:10DBF000FF2801D000F0CEFD657625712168201D3B
:10DC0000884770BD418805480288914204D3408806
:10DC1000814201D801207047002070479C200020DD
:10DC20001048018CC9B2012917D1818C090714D180
:10DC3000018D09060A0F03D1828D1206120F0ED034
:10DC4000090F012903D1828D1206120F07D0032973
:10DC500003D1808D0006000F01D000207047012005
:10DC600070470000C00F00F00268134602E08A42CD
:10DC700004D01268002AFAD10B600160704770B5B9
:10DC8000064608460D461A3000F017F8044630786C
:10DC9000032805D12846143000F00FF8000404438F
:10DCA000204670BDC178827809021143427809028A
:10DCB000114300780902084370470146407809780B
:10DCC0000002084370470000F0B5284C2146103987
:10DCD00048688B68227886469C46CF78667836E01E
:10DCE000182353436168521CC918A378D2B29342D7
:10DCF00000D100220B78022B02D0032B27D123E086
:10DD000003464D68194603E0A94204D00B46C96991
:10DD100000291CD0F8E7002919D08B4208D1C0692E
:10DD2000002805D1124F0125BD600025AC46012712
:10DD30000D68C969D961002909D00B685B190B60AE
:10DD400005E00174C06900E000210028F9D1964285
:10DD5000C6D10649624610398A604860CF70704566
:10DD600001D00120F0BD0020F0BD0000BC2000204B
:10DD700000100140F8B52C4E044670680025009054
:10DD800041E0002C02D02046E46920E02648182318
:10DD90001030017842684B43491CC9B2D218017057
:10DDA0008378994200D105701178506801292CD1EF
:10DDB000017C002929D191684160D1688160116995
:10DDC000C16051698161F178002900D045604368E4
:10DDD000B268164F991A0902090AB94202D282683A
:10DDE000891806E0D11A09028268090A8A4202D912
:10DDF000511A016000E005604560012185600174F1
:10DE0000C56101F011FF002CBBD10748103001782B
:10DE100040788142BAD171680098814201D00120D6
:10DE2000F8BD0020F8BD0000AC200020FFFF7F00FF
:10DE3000FFB0FFB0C2B04121684601700D2000F074
:10DE400060FC0E2000F05DFC102000F05AFC0D205C
:10DE500000F098FC0E2000F095FC102000F092FCE1
:10DE600000F052FA002801D0FDF780FD002000F0FC
:10DE70006FFA0023A64A04210F20FDF79FFE002819
:10DE800001D0FDF773FDFDF733FBA248A0494068C0
:10DE90000190002348225C3901A801F0A7FB00286B
:10DEA00001D0FDF763FD02AC22460121002001F004
:10DEB00085FB002801D0FDF759FD204601F074FBD9
:10DEC000002801D0FDF752FD934801F063FB0028C4
:10DED00001D0FDF74BFD012001461031684601736A
:10DEE0000D228EA103A87CDF002801D0FDF73EFDA6
:10DEF00000250095062168460195018041808580B6
:10DF00002821C1807ADF002801D0FDF72FFD874846
:10DF100000907F4869466030FEF75EF9002801D026
:10DF2000FDF724FD3C2101A8FDF733F902216846E5
:10DF3000017185710521C17110AE3C213046FDF79C
:10DF400028F9012410A8048279481FAF15902021D8
:10DF50003846FDF71EF918A8C47740202390B42056
:10DF60002490744B3A463146009501A8FDF720FFF6
:10DF7000002801D0FDF7FAFC6E461C213046FDF763
:10DF800008F90520C00201900F20000302900095BF
:10DF9000032168460173C581057467480590674889
:10DFA00006903046FEF762F8002801D0FDF7DEFC4F
:10DFB0000320FDF7D7FF002801D0FDF7D7FC002292
:10DFC0001146012001F020FC594E0C3E3062002029
:10DFD00000F097FB012000F094FB002000F0D2FB42
:10DFE000012000F0CFFB56A0289500682790202143
:10DFF00020A8017777214177707828AF00903B46C1
:10E0000027AA0221306A01F055FC262120A80177B9
:10E010004577707800903B4627AA0221306A01F0CC
:10E0200049FC242120A80177F021417770780090E5
:10E030003B4627AA0221306A01F03CFCFDF768FA52
:10E04000404A01213348FDF7A3FD002801D0FDF728
:10E050008DFC01213C484903C1604900C160890031
:10E06000C1600020FDF7BCF829AF48DF002801D0CF
:10E07000FDF77CFC307A002800D13472F07800285B
:10E080001DD0F570002231A1B3A8FFF7A3F82849ED
:10E09000332220313846FFF7C5F82D4B1C494B225F
:10E0A0006B44D2007C313846FFF78CFA3846FFF7D4
:10E0B00081F80D2000F0DAF90E2000F0CFF9307968
:10E0C00000281CD03571002220A1B3A8FFF782F8E8
:10E0D0001749332220313846FFF7A4F81C4B4B2256
:10E0E0006B44D2001B493846FFF76CFA3846FFF7FD
:10E0F00061F80E2000F0BAF90D2000F0AFF9F079C8
:10E100000028B2D0F5710120FDF76AF8ADE70000F4
:10E11000AC21002040010200B1C101004E6F7264C9
:10E1200069635F554152545F3200000045E80100C9
:10E130000C200020A1E8010039E901000DCB01000D
:10E1400020670000B5FA0100000500500000000043
:10E15000FC0400008024002070B5144682880E461E
:10E1600005462088111D4118921C994201D8FE2AAB
:10E1700001D90C2070BD521C32542088FF21401C54
:10E1800080B2208031542088401C80B220808119C8
:10E19000288801F0E4FE2188401880B22080AA88F7
:10E1A000002A09D0A968002908D08019FCF7D8FFF7
:10E1B0002088A98840182080002070BD072070BDED
:10E1C000002A05D00B780370401C491C521EF9D15F
:10E1D0007047C9B20170401C521EFBD1704770B528
:10E1E0000446C06A0D460026A84210D0204601F021
:10E1F00037FC06000BD12146607801232A463031D6
:10E20000FEF726FF002801D0751E0126E562304684
:10E2100070BDF8B50F46017814460546012902D1B4
:10E220006878002806D02088821C9A422DD80129BF
:10E2300002D006E00720F8BD69784118891C994290
:10E2400023D8181A801E86B2684606802188B81C1A
:10E25000081869467DDF0028EDD12878022805D10D
:10E2600069460988B14201D809210AE0082101283C
:10E2700005D16878B04202D86A46108001E068464D
:10E28000068068460088FE2801D90C20F8BD228847
:10E29000401CB8542088401C80B22080395420880B
:10E2A0006946401C20800988401820800020F8BD65
:10E2B000C20843075B0F0120895C98400840704703
:10E2C00003681B6918470121890740180068002866
:10E2D00000D001207047000000280FD00849094AEB
:10E2E000096800BF00BF00BF00BF00BF00BF00BF84
:10E2F00000BF914200D000BF0138F2D1704700004A
:10E30000042100200024F40070B50E4C0025207874
:10E31000002801D0852513E00021A1606160216102
:10E32000E160094800680126304002D1032100F075
:10E3300065F801F087F9002801D10448866126704C
:10E34000284670BD4829002000E100E0000500409B
:10E35000F8B5174C0546A0780026002809D0002DF6
:10E3600002D069680120884768460670FDF7B8FC4E
:10E3700016E068460670FDF7B3FC002D04D00C488B
:10E3800029461030FFF770FCE068002808D10948E2
:10E39000066009490220486006490120FC390860EE
:10E3A000E068401CE06068460078FDF7B7FCF8BD07
:10E3B00048290020040100400003004038B5002037
:10E3C000694608706846FDF78BFC084C20780028E9
:10E3D00001D1FFF799FFE068401CE0600120A070C8
:10E3E00068460078FDF79AFC38BD000048290020F7
:10E3F00010B5002801D1FEF7D1FA10BD8207D30E67
:10E40000FF229A408907090E10B5994000280BDABF
:10E4100003071B0F083B9C080C4BA400E318DC69A6
:10E4200094430C43DC6107E08408094BA400E41822
:10E43000236893430B432360C106C90E0120884023
:10E44000044908600449086010BD000000ED00E0C8
:10E4500000E400E080E200E000E100E00121814012
:10E460000148C16070470000000500500121814053
:10E47000014881607047000000050050044A53685D
:10E48000012181400846984390601940D16070474F
:10E4900000050050FEB5074640790C4641013F4853
:10E4A0000E18307E002801D00820FEBD3260207B8F
:10E4B0000125012805D82178284688403849C860B8
:10E4C00002E0207800F066F92178364A01208900C0
:10E4D000891808606578FF2D06D03149A840C860CA
:10E4E000284600F018F901E00025ED43A078FF2848
:10E4F00008D0002300931A4619460193029000F0B9
:10E50000BBF802E00020C0430290E078FF2804D06E
:10E5100000F040F9E07800F0FEF87879E178420107
:10E520001E481018817639680520000223780818E3
:10E53000029A8360C5600261A2684262627B237BAB
:10E54000002A00D00122012B04D0022B04D0032B7F
:10E5500006D103E0022302E0042300E006231A436D
:10E5600042657A79637955010C4AAA18D3763268E4
:10E57000002A04D0032304221B02C9184A60012583
:10E5800005603068002804D0042021793856FFF750
:10E5900035FF002070763576FEBD0000C0290020D2
:10E5A00000050050000700501FB50091069C029323
:10E5B00069460A710C73002200F026F804B010BD01
:10E5C00041790F4A490189180A68002A06D0027960
:10E5D000D306DB0E01229A400A4B1A600A680068D3
:10E5E000002A05D000220323D2431B02C3189A60DD
:10E5F000052300221B02C01802600A767047000043
:10E60000C029002080E100E0F8B50D464179184BA3
:10E610004901C918002300934B7E002B01D0112023
:10E62000F8BD0B68002B04D014231A4201D101233A
:10E630004B76D8CD0831D8C14B79FD245B085B00FF
:10E6400023404B718C781839103DFF2C03D00123E7
:10E65000A340084CE360002A04D00020487606203E
:10E660000090F8BD00682A4601F058F90098F8BDFE
:10E67000C02900200005005070B552000A439900DF
:10E68000049D0A432902059E0A43310405240A43D6
:10E69000240780000721001909024018026070BD9C
:10E6A00070B552000A439900049D0A432902059E51
:10E6B0000A43310405240A43240780000721001976
:10E6C00009024018026070BD70B552000A439900FB
:10E6D000049D0A432902059E0A43310405240A4386
:10E6E000240780000721001909024018026070BD4C
:10E6F0001CB500220B46009211460192FFF7D0FF95
:10E700001CBD052212078000801807220321120277
:10E710008018016070471CB5002100910B46012252
:10E7200001911146FFF7A8FF1CBD1CB50021009107
:10E730000B46012201911146FFF7B2FF1CBD0522D5
:10E7400012078000821807200002101802680323B5
:10E750001B049A430260026809040A43026070477E
:10E760000522120780008218072000021018026894
:10E7700003231B049A430260026809040A430260EF
:10E78000704700000121814001488160704700000E
:10E790000005005001218140014881607047000060
:10E7A0000005005001218140014881607047000050
:10E7B0000005005001218140014881607047000040
:10E7C00000050050012282400348002901D08260E8
:10E7D0007047C260704700000005005038B5084B14
:10E7E00005241B68009324026B46411805E0850050
:10E7F0005D592D192D69401C20C28142F7D838BDC2
:10E800009C0102000249401800210160704700008D
:10E8100000600040034940180068012800D0002033
:10E8200070470000006000404058002800D00120E0
:10E8300070470322120280184068084000D001206F
:10E840007047000070B5134A31201070124A6120E1
:10E85000D0709070087814461C3C104D312808D0B8
:10E86000322805D12868FDF727FA01202072E071CF
:10E8700070BD0020C043606120610D20FFF7FEFDE8
:10E88000002214212868FDF7D3F900202072A0701F
:10E8900070BD00003C2100201C200020400102002F
:10E8A00010B5002809D0032806D10220FDF75CFF2F
:10E8B000002801D0FDF75AF810BD00F057FE10BD3A
:10E8C00038B501881B4C054611291CD00CDC0129E8
:10E8D00029D0102916D10720FDF746FF002801D0C6
:10E8E000FDF744F8A88817E012481329408915D08D
:10E8F000522907D100231A461946A9DF002801D062
:10E90000FDF734F838BD0020FDF72EFF002801D0B8
:10E91000FDF72CF80020C043608138BD00231A4663
:10E9200085217FDFEAE701202070632069460870B7
:10E9300038BD00000020002010B50078002807D165
:10E9400004483B21408976DF002801D0FDF70EF80E
:10E9500010BD000000200020F8B5022617460D4625
:10E96000044602296DD36069A8426AD9207801283B
:10E9700004D002283CD0032863D149E0680840193C
:10E980000090216A400A09182046FFF728FC06007B
:10E9900057D100980099C005C00D491C00193030AE
:10E9A0000091E90705D001780907090F3A011143E1
:10E9B00000E0394601700120E0700098216A400AA9
:10E9C00009182046FFF70BFC06003AD10098C00555
:10E9D000C00D00193030E90702D03905090E05E0F5
:10E9E00001783A0509090901120F1143017026E067
:10E9F000206A290A41182046FFF7F1FB060020D1C2
:10EA00002806C00D0019B9B2303000F0DAFF16E068
:10EA1000206AE90941182046FFF7E1FB060010D102
:10EA20006806C00D001930300546FFF73BF9010FAD
:10EA30003801090700090143284600F0BAFF012008
:10EA4000E0703046F8BDF8B5056813460E46074637
:10EA500002292DD36869B0422AD9002B07D00022A1
:10EA6000D24319462846FFF777FF00281FD13146C9
:10EA70003846FEF7F5FF040018D0012C18D0601CB2
:10EA800018D0002231462846FFF766FF00280ED135
:10EA9000696928698A1E904205D2401C286128793C
:10EAA0000122104328712646B142E0D80020F8BD6B
:10EAB0000220F8BD0120F8BD70B501240B496004A7
:10EAC00008600B4940108860094940398860094D49
:10EAD0006C602F20FFF700FCAC60074D00242F2056
:10EAE000AC60FFF7F9FBAC7070BD000080E100E0A6
:10EAF0004013014000100140AC20002030B5FF223F
:10EB00000523CD7D002409321B02C318002D84503B
:10EB1000986905D04B7ECA68D054487E401C487620
:10EB200030BD70B500240546601C90B00007000F92
:10EB300008A9103008940870601C0007000F1030FE
:10EB400048708878F9263040801C88701C2101A804
:10EB5000FCF71FFB694608791021084369460871D4
:10EB6000029408A80494059407940690287808A9AC
:10EB700088710320694688841120009408704870C9
:10EB80008878F7213040801C0840EF21084001269A
:10EB900030436946887014210AA8FCF7FAFA09A8DC
:10EBA0000A9068460B9069460E8614204C8688862B
:10EBB0002B4668880C330AAA01A9A2DF10B070BDE9
:10EBC0001FB501246B461C701972019206C8684675
:10EBD00090471FBD10B50446FCF792FD00280CD0ED
:10EBE000A007C00E002C0ADA2107090F083989088E
:10EBF000144A89008918C96906E0134810BDA108A4
:10EC0000124A890089180968C1400806800F042843
:10EC100011D200280FD002280DD00D494B68E20612
:10EC2000D20E01209040002B08D0620992008B5830
:10EC300003438B5004E00448401C10BD05490860A4
:10EC4000002010BD00ED00E00120000000E400E025
:10EC5000D020002000E100E0F8B5234BDC78002C48
:10EC600001D01120F8BD01250027DD7004060BD569
:10EC70000224DC7077241C7200245C729C72DC72AB
:10EC800006271C73FF245C73174C4606203CE419CE
:10EC9000760E203426720E0E66720E0CA6720E0AC6
:10ECA000E672217340280DD048280DD0FF216173F2
:10ECB0000521022A0AD0032A08D01D71000607D5B3
:10ECC000012006E09521F2E78721F0E71971F5E7C9
:10ECD0001879054A0E30C3B2183210460621103892
:10ECE00000F08AFB0020F8BD882A0020FEB505460A
:10ECF000204E4078307077682978BC69002908D0A8
:10ED00001D4801291CD002292FD00320FCF72EFE1C
:10ED1000FEBDFCF7ABFE0068206001204002606091
:10ED20007068806980680028F2D00020009001900F
:10ED300002906878002800D00120694648700EE0F3
:10ED4000A1680029E4D007C86B4607C3687800288B
:10ED500000D001206946487020460C300190A0691F
:10ED60000290A26838469047FEBDA1680029FBD0FA
:10ED70000C30E8E7D8200020B8010200F7B582B0D7
:10ED8000029817460678401CFCF70EFA029900BA62
:10ED9000000A097900020843A04C86462546284609
:10EDA000A28B48300090288CAD7A8D218900401CC0
:10EDB000AC46531A002580B28A427BD01DDC9849AC
:10EDC000531A8A4234D00FDC964E002A25D0B24224
:10EDD0001FD1012200214020FFF73EFF002801D073
:10EDE000FCF7C4FD8E48C4E08C49897AC908C90083
:10EDF000062B2CD0132B0CD144E0292B77D004DC2C
:10EE0000152B7BD01B2B04D188E0332B71D0382BF2
:10EE100070D0A583032005B0F0BD01220021402061
:10EE2000FFF71AFF002801D0FCF7A0FDA683A1E0A0
:10EE3000B00872D1FF210322AB314820FFF70CFF4D
:10EE4000002801D0FCF792FD7548801D91E0700705
:10EE500003D4C91CA172B0085FD12584A07A4007F1
:10EE6000400F03280BD000210222E920FFF7F4FE17
:10EE7000002801D0FCF77AFD6948133079E00121C0
:10EE80008907F1E7720739D5491CA1727D21090173
:10EE90002084884218D8022200214120FFF7DCFE9E
:10EEA000002801D0FCF762FD8D20800061E001E0C8
:10EEB00038708CE0B10861D1F107E7D137E07D21EE
:10EEC00009012084884201D90220F1E76046400709
:10EED000400F03280FD000210222E920FFF7BCFEDB
:10EEE000002801D0FCF742FD4D483A3041E02FE0C8
:10EEF00004E041E04FE001218907EDE7B1083DD191
:10EF0000F107DCD102227A20FFF7A6FE002801D00B
:10EF1000FCF72CFD424840302BE02FE0B0082DD10B
:10EF20007046400003D5604608210843A072A07ACD
:10EF30004007400F03280DD0012251025020FFF757
:10EF40008BFE002801D0FCF711FD35484E3010E053
:10EF5000B00813D10098E0600120A0820246002191
:10EF60004920FFF779FE002801D0FCF7FFFC2C4870
:10EF70005830A08301204EE7B00801D0042097E765
:10EF80000298401C02900398401EC0B203909B2040
:10EF9000E5838000A08301AB10220399029800F062
:10EFA00085F8022801D2002035E76846007900285C
:10EFB0008BD10098017889090CD0012921D0022930
:10EFC00008D0294601204002616020813D70A58360
:10EFD000022020E7017AC279890992008918827992
:10EFE000837A9207120D89184279407A12078007B6
:10EFF000DB09400F120F18181018C01F491C814060
:10F00000E0E7017A0A02C179407A09045118081828
:10F010000121800289024118D4E70000682A0020FB
:10F020000F0200000C020000F8B51E4C1646A38B20
:10F03000A52292000025002B06D09A1A0ED00A2A8B
:10F040002BD0A5830320F8BD03789B0801D00420B2
:10F0500011E0491EE583C9B2A283401C01226B4620
:10F06000520200F023F8022801D20020F8BD6846C1
:10F070000078002801D0307010E0A08A01280CD957
:10F08000012200214C20FFF7E7FD002801D0FCF70A
:10F090006DFC0548A0830120F8BD3570A5830220D2
:10F0A000F8BD0000682A00209E020000FFB504465B
:10F0B00054489646C28B03461846FF253830D6354D
:10F0C0008446561B1038203381B0AA425BD005DC41
:10F0D000002A0DD0FF3AC42A04D151E0072E78D07F
:10F0E000132E75D047490020C883032005B0F0BD1A
:10F0F000444A958AD5826DE000222A841E722A83B2
:10F100000322DA703F4F404A3D8C6D1CADB23D8406
:10F11000954204D902210BE0491EC9B2641C0029A2
:10F120000BD02278FF2AF7D0D2B2FE2A0FD00521C9
:10F13000049801700020F88361E0102362460121E9
:10F1400000F05AF9FF21C431F9830120CEE70422EF
:10F15000491EC9B2DA70641C7246714501D916465F
:10F1600000E00E46002504E0264F625DFF687A55F8
:10F170006D1CB542F8D3234A1683D568AD19D56006
:10F18000DA78032ABED01F4C7246218B714513D208
:10F19000511A8DB2F02D00D9F025EBB20121E268B1
:10F1A00000F02AF9E0684019E060208B40192083C4
:10F1B000FF20D630E083C8E7E18A0223491EE182BE
:10F1C0006246012100F018F9FF20DD30F2E700E08F
:10F1D0000FE000210B4DFF26EA8A002A8CD11E7217
:10F1E00002236246012100F007F9FF20E930E8839D
:10F1F000ABE70020D870049908700249C883022048
:10F2000074E70000682A0020204E0000F7B5764C15
:10F21000164622463832114610390B468C46083BBA
:10F2200082B0A78BD97800912146898A5D25ED00AF
:10F230008E46781B0021AF4268D009DC002F11D028
:10F240006A48381826D010284DD0212806D14AE027
:10F250001E287DD0342879D0442878D0A18303207B
:10F2600005B0F0BD02980078800858D1A07A400718
:10F27000400F012812D0704601280FD901225920D1
:10F280002169FFF7E9FC002801D0FCF76FFB574824
:10F29000404216E002980078800840D1704668E04D
:10F2A00021830420D87070461D72012801D9FC20EA
:10F2B00000E0FE20587202231946604600F09CF8D8
:10F2C0004B48A08320E0731A9DB2F02D00D9F025A1
:10F2D0004018E9B2012300F08FF8208B40192083F9
:10F2E00017204001EDE74048218B01267602C068D7
:10F2F000B142E8D38019E0600320D87003460121B1
:10F30000604600F079F8A5830120A9E7987EC00641
:10F31000C00E052808D00B2803D00D2801D00420EA
:10F3200000E00520307043E021841DE0208C314B4B
:10F33000401C80B22084984238D8102301216046B6
:10F3400000F05AF82A483730BBE701E024E03AE001
:10F35000002006E0029D2D5C002D01D0D97006E052
:10F36000401C039DA842F5D300980328DED0E08A14
:10F37000401EE08280B2FF25002891D1704601280E
:10F3800030D91D72FD20587203230221604600F01F
:10F3900033F8C720800094E721840320D870208CA4
:10F3A000144B401C80B22084984204D90220B9E753
:10F3B000A183022054E710230121604600F01CF8CD
:10F3C000CB2080007DE7002006E0029D2D5C002D13
:10F3D00001D0D97006E0401C039DA842F5D30098E7
:10F3E0000328DCD03170E3E7682A002041FDFFFFED
:10F3F000CF020000204E000038B50D4609491446E2
:10F400000A7E01219140084AD160009301462346BB
:10F410002A460648FFF7C8F8002801D0FCF7A6FAEC
:10F4200038BD0000A82A002000050050000202009C
:10F43000FFB50746806A81B0144600283DD00025FC
:10F4400038462030009033E00C20B96A68430E182B
:10F45000B088801CFE2802D90C2005B0F0BD22889F
:10F460000299401C885420881622401C80B22080BB
:10F4700002990A542088401C80B2208002994118C9
:10F48000308800F06CFD2188401880B22080B2885E
:10F49000002A0AD0B16800290FD0029BC018FBF7E0
:10F4A0005FFE2088B188401820806D1C0098EDB266
:10F4B000007BA842C8D80020CFE70720CDE7000096
:10F4C00070B504461248134D018A2182818A6182F7
:10F4D0000078002818D06879002815D100F016FEB1
:10F4E000002811D028462030E06002200849207210
:10F4F00004202031C870064800212030FCF724FC8D
:10F50000002804D1052000E00320A870002070BD71
:10F51000602700206820002070B5044611480426AA
:10F52000018B2182818B618200780F4D002816D0DB
:10F530006879002813D100F0E9FD00280FD0284693
:10F540002030E06002202072064800212030C67082
:10F55000FCF7FAFB002804D10620A87000E0AE708A
:10F56000002070BD602700206820002010B500201A
:10F57000FDF7FAF8002801D0FCF7F8F9FDF774F868
:10F58000002801D0FCF7F2F93CDF002801D0FCF79D
:10F59000EDF910BD002803D00249C8600020704773
:10F5A0000E207047E02000201CB503490191009116
:10F5B000694660DF1CBD00000020002070B50E46CB
:10F5C0000546144614211046FBF7E3FD01200021F7
:10F5D00020802161217326726572002D00D0A072F7
:10F5E000002070BD10B5FCF7B3F910BDF8B50029C7
:10F5F00003D08C070025002C01D00720F8BD0E4E4B
:10F600000E4FB1607280736039680124214003D0CD
:10F610000A49254680310C60094910DF002803D0D3
:10F62000002DEBD03C60F8BD3470FEF7C7FE16200D
:10F63000FFF7D0FAF8BD0000E020002000E100E074
:10F64000E5F501000148007870470000E020002047
:10F65000F1B588B008986A4F067CC568684840379D
:10F66000C08A002802D1387EFFF7A4F8644C203409
:10F67000E078022801D001284DD10899B61F4968C9
:10F68000AD1D0978F6B24C2904D1002E0CD0761E9F
:10F69000F6B26D1C002E03D02A78FF2AF7D005E0C1
:10F6A0004C2901D0002503E001266D1E002D29D133
:10F6B000A178012926D0012069464870A178012946
:10F6C00007D0022905D004290FD0052918D003201E
:10F6D00008E00020694608700320A070FCF736FAA5
:10F6E000002804D0FCF742F901E069460870387E32
:10F6F000FFF760F80320A07041480168684665E0A4
:10F700000220F2E7022804D10120E07028784008A6
:10F7100012D00020E070062069460874A078012805
:10F7200015D0022818D0042838D0052850D003203E
:10F73000FCF71CF909B0F0BD2079314A0E30C3B294
:10F740003832104606210A38FFF756FEF2E702204B
:10F75000A0702B490020888304AA31462846FFF771
:10F760000DFB0228E6D3002168460173017C41733A
:10F770000320A070387EFFF71DF86846007C002843
:10F7800005D0FCF7E3F9002801D0FCF7EFF80120E1
:10F790001C49800748621A48016816E004AA3146ED
:10F7A0002846FFF741FC0228C4D3012168460173B3
:10F7B000017C41730320A070114D0020A882E882D3
:10F7C000E070387EFEF7F6FF296803A88847B1E7A6
:10F7D00004AA31462846FFF719FD0228AAD30221C0
:10F7E00068460173017C41730320A0700020E07023
:10F7F000034CA082E082387EFEF7DCFF2168E4E75C
:10F80000682A002000350040F7B5042503260227AA
:10F81000002831D0234C0420FEF787FF0320FEF799
:10F8200084FF00210220FEF763FF0120FEF77DFF29
:10F830001D488560C66007610120FEF7B3FF012106
:10F84000052089070002201841620199002906D08D
:10F85000012921D0022921D0032921D00021029B96
:10F860000122002B00D0114341650023FF21093103
:10F870000B5102602046FEBD0C4C0420FEF755FFE4
:10F880000320FEF752FF00210220FEF731FF012086
:10F89000FEF74BFF0648CCE70221E0E70421DEE754
:10F8A0000621DCE7004000400045004000300040F9
:10F8B00000350040F8B594460A46069D9E46012153
:10F8C0000026A940144B052734463F02D960C119D0
:10F8D000FF30013019E067463F5DCF6103273F03EA
:10F8E00000E0761C8368002B01D1BE42F9D3BE42F2
:10F8F00004D12846FEF756FF0020F8BD0027876098
:10F900008F6973461F55641CA4B29442E3D3284602
:10F91000FEF748FF0120F8BD00050050F8B50027AC
:10F920000E460F77044603210420090261188860FF
:10F93000FF25093567511079002802D0106800783A
:10F9400000E0F07E05231B02E318D861107901283E
:10F9500002D91068407803E0107B012801D9F07EBD
:10F96000D8613068002802D004204860F8BD605992
:10F970000028FCD067513146204600F0D9F9002814
:10F98000F5D1B07EFF28F1D0FEF704FFF8BD70B5C9
:10F990000C4606462046154691B21A3000F011F882
:10F9A0003078032804D12046290C143000F009F8DF
:10F9B00070BD0170090A4170090A8170090AC1709D
:10F9C00070470170090A41707047000070B5044625
:10F9D00000F046F8050039D1207803282ED120798F
:10F9E00001282BD142022046303000210646FEF786
:10F9F000F0FB184816492018FFF7E3FF1649304678
:10FA0000FFF7D7FF8520800014492018FFF7D1FFAA
:10FA10004320C00020182169FFF7CBFF872080001A
:10FA20002018E168FFF7C5FFE2690123521CE2627A
:10FA300060783146FDF756FB002020710022607887
:10FA40001146FDF7C5FA002800D00125284670BDF3
:10FA500055AA00002E0200005252614172724161AB
:10FA6000F8B50446C0780027002820D0E56A214672
:10FA70006078303101232A460091FDF733FB0028DE
:10FA800001D0012713E00020E070206AA169281A44
:10FA900088420CD2A67808E0A06901234519607855
:10FAA0002A460099FDF71EFB761E022EF4D2384638
:10FAB000F8BD0000FEB5334C00252069401C2061D4
:10FAC0006169491C6161032806DB2F49122208463F
:10FAD000E4302561FCF7E2FB6069322811DB6561E7
:10FAE00061790120002903D0E0706571A07105E003
:10FAF000A179002902D020716071A5711020FEF754
:10FB0000BDFC214F0025607800901E486E00343007
:10FB1000321802AB0221206AFFF7CCFE6B465A7AFC
:10FB200010091107090F18715971092801D93730C7
:10FB300000E0303018710929184601D9373100E04A
:10FB40003031417120690621484340193A546079A7
:10FB5000002806D060690C2148431A7980190B49A6
:10FB600008E0A079002809D060690C2148431A797F
:10FB7000074980190A545A79401842706D1C062DA5
:10FB8000C1DBFEBD0020002028210020282200200B
:10FB900080240020FEB51F4C0025A76860680290F5
:10FBA0006846FDF7E7FA0190FEF78EF806460198E1
:10FBB000002822D000230098616817E00E680A46EA
:10FBC000864202D9301A086012E0801BF318002622
:10FBD0001660D668D169B446002E07D0FE183602EA
:10FBE000360A566066469660D56115460029E5D10D
:10FBF00028466160FEF7BEF806E02846FEF7BAF830
:10FC0000002801D1002E02D00298FCF7E7FE002068
:10FC1000E070FEBDAC200020012002490005086014
:10FC20007047000000E200E010B50E4B5968002953
:10FC300006D002680C68A24204D8A21A0A60C16108
:10FC4000586010BD0B4604E00B46C969121B002921
:10FC500004D00C689442F7D3A41A0C600260C1610E
:10FC6000D86110BDAC2000207CB50D4606460024AE
:10FC700069460C706846FCF733F801A800F0A6F955
:10FC800000280DD005704660684608490079487024
:10FC900068460078FCF742F8FFF7BEFF20467CBDBF
:10FCA000684604240078FCF739F8F7E7BC20002008
:10FCB000F8B51D4D6C68002C34D01C4800274068F6
:10FCC000A968401A0602360A2068B04218D8361AC7
:10FCD000C7192246107CE46900280FD00020107458
:10FCE000EB68002B07D0916950699847002805D030
:10FCF000FBF73CFE02E0516990698847002CE3D194
:10FD000029786878814206D1401CC0B26870022808
:10FD100001D10020687004490006800D18310F5091
:10FD2000FFF77AFFF8BD0000AC200020001501406D
:10FD300038B505221202831898696A461070087F48
:10FD40000A7D904203D26A4612780C692254087FD9
:10FD5000401CC2B20A770C7B501C844202D98968CD
:10FD6000085C03E00D7D854202D9C87ED86103E0BE
:10FD7000A24201D3AA4201D2012038BD002038BDE1
:10FD8000FF221D32002383508B8A8A68D25C8B8AC3
:10FD90005B1C8B82052109024018C261704770B557
:10FDA0008EB005461C216846FBF7F3F969460878D2
:10FDB0000C210843694608700024019403940494BC
:10FDC00005940694287808A988700220694608845A
:10FDD000601C0007000F1030079408771120487747
:10FDE000887FF9210840F721801C0840EF21084056
:10FDF0000126304369468877142109A8FBF7C9F921
:10FE000008A8099007A80A9069468E851420CC8519
:10FE1000088668882B1D09AAA2DF0EB070BD1FB529
:10FE200000226B461A70197281680191827506C8AA
:10FE3000684690471FBDF0B50C46012185B00546C8
:10FE40004902FEF7F6FC032109026F18002600287C
:10FE500026D0FF2125312846FEF7E6FC00281FD0DA
:10FE6000FF2025302E5081208000B860A07E002821
:10FE700001D1012068600221684601700920C0019B
:10FE80002918086808600390E17D68460172E068FF
:10FE90000190E675267606CC6846083C90472DE032
:10FEA00004212846FEF7C5FC002827D0FF21093190
:10FEB0002846FEF7B9FC002820D021462846FEF748
:10FEC0001DFEE07D617E884218D1207E002807D08B
:10FED000617EE268E0752069E060267666760AE079
:10FEE000A07E002801D10120686081208000B860D8
:10FEF000E675617EE2682046FEF762FEFF271D3749
:10FF000039462846FEF790FC00280FD0A08AA17D34
:10FF1000884204D221462846FFF732FF06E0EE5120
:10FF2000A17D002902D02046FFF779FFFF27453742
:10FF300039462846FEF778FC00280ED0EE51A07E08
:10FF4000002801D001202860E07D002805D0E6755A
:10FF5000617EE2682046FEF733FE05B0F0BD087012
:10FF6000000A48700220704738B51549154A48887C
:10FF700090420FD04A78144C521CD2B24A70237B64
:10FF8000934208D3091D75DF002803D0A169002919
:10FF900000D0884738BD00254D70217C002907D04E
:10FFA0003B2176DF002803D0A169002900D08847D3
:10FFB00061690029EED068460570884738BD0000A9
:10FFC00098200020FFFF00002C29002010B50949CF
:10FFD0004B788C785A1CD2B2944200D100220C7813
:10FFE000944201D1002010BD0270486818214B4393
:10FFF000C01810BDBC200020FFB583B016460C9D74
:020000040002F8
:100000000D9C1F46022200950194039800F00CF805
:10001000002807D13B4610223146009501940398F1
:1000200000F002F807B0F0BDFFB583B0074600202E
:100030000C9C8646268805463AE07868A900421856
:100040001188684681805188C1800022694601A8D4
:1000500065DF002839D1684601780598814226D1AC
:100060007046002801D0002200E002222088891872
:1000700042180D998A4227D8714600290AD1401C9E
:1000800080B22080069A049911542088401C208058
:1000900001208646218806980A18694601A865DF6E
:1000A000002812D1694620880978401820806D1CEC
:1000B0003888A842C1DC704600280AD02088801BFE
:1000C000401E80B2FF2802D90C2007B0F0BD06996F
:1000D00088550020F9E770B50D4604000ED0206861
:1000E00000280BD00178002908D0C188A28891424D
:1000F00004D14078FCF7E8FFC00703D00020286057
:10010000092070BD20682860002070BD0448017976
:10011000002902D1007B002800D001207047000098
:1001200088200020A0010200240202002002020018
:1001300018020200000200000A09080CD82600205C
:100140000821002001000007A9FFA8FFABFFAAFFBC
:10015000ADFFACFF1516171811121314F42600206A
:100160001427002040270020110003008DC6010045
:10017000120003008DC60100130003008DC60100AC
:10018000140003008DC601000C2900209ECADC2447
:100190000EE5A9E093F3A3B50000406E0000005007
:1001A00031C3010059C40100D5C30100B1C401002D
:1001B000ADC301002DC301000200000000000000DB
:1001C000000000000300000000000000000000002C
:1001D000000100000000000000000000010000001D
:1001E000000000000000000002010000000000000C
:1001F00000000000020100000000000000000000FC
:100200000030004003000000000000FF03FF00007A
:100210000000000400000000312E3030000000001B
:10022000534443004E6F7264696300004C02020045
:100230000020002008010000E2B601005403020083
:1002400008210020C81E0000F2B6010000010000D5
:10025000000100000100FFFF01000200000000009B
:1002600000000000303030000000000000000000FE
:100270004141412E545854007878782E54585400F7
:10028000A9FFA8FFABFFAAFFADFFACFF240102004E
:10029000000000000001000000000000000000005D
:1002A000000000000000000000000000000000004E
:1002B000000000000000000000000000000000003E
:1002C000000000000000000000000000000000002E
:1002D00000000000CC28002000000000EC280020D6
:1002E000000000000000000000000000000000000E
:1002F00000000000000000000000000000000000FE
:1003000000000000000000000000000000000000ED
:1003100000000000000000000000000000000000DD
:1003200000000000000000000000000000000000CD
:1003300000000000000000000000000000000000BD
:1003400000000000000000000000000000000000AD
:040350000024F40091
:040000050001B0C185
:00000001FF
